S00E00006C6F616465722E737265639F
S10F000093000000370100846F004000F2
S113000C130101DD23261122232481222322912290
S113001C23202123232E3121232C4121232A512136
S113002C232861219307E0FF2320F0FCB70700800D
S113003C83A6070037C72CF31307F7EE3704200009
S113004C639CE60003A447001307140033348000B8
S113005C23A2E700131454019304000013090101B3
S113006C9309B00E130A0009930A0001130B5005EF
S113007C630604001305E002EF0040281306002079
S113008C9385040013050900EF00804883470101A0
S113009C638E3701B7070100B384F400B7078000FF
S11300ACE398F4FC631204146F0080158347210158
S11300BCE39247FF8347B101E39E07FC8347C101E9
S11300CCE39A57FD8347E120E39667FD0347F1204C
S11300DC9307A00AE310F7FC930720091307E01F0A
S11300ECB306F90083C60600E39606FA9387170055
S11300FCE398E7FEB705FFFFB385B400130680024F
S113010C130509002326B100EF0080406396040018
S113011CB70401006FF0DFF503270101B7072CF3D7
S113012C93877703E318F7F60347410193077003AA
S113013CE312F7F6834751019306400093F7F70057
S113014CE39AD7F40346810193063001E314D6F401
S113015C83469101E390F6F48347C101E39CE7F2F3
S113016C8347D1011307200093F7F700E394E7F2D8
S113017C03470102E310C7F28346110293072000E0
S113018CE39AF6F08346410293077003E394F6F086
S113019C834751029306400093F7F700E39CD7EE94
S11301AC83468102E398E6EE03479102E314F7EEEB
S11301BC8346C1029307700BE39EF6EC8347D1028E
S11301CC93F7F700E398E7EC03470103930730092F
S11301DCE312F7EC0347110393074008E31CF7EA17
S11301EC8324C100630604021305D000EF00001140
S11301FC1305A000EF008010B7078000639AF40089
S113020CEF00403863160508EF0000126F00400839
S113021C032541018327810137F7FFFF3375E5007F
S113022C93D747413305F5000326C1028327010305
S113023C938504003376E60093D747413306F600E2
S113024C3306A6402326A100EF00802C0325C10011
S113025C930600021307F0FF9357D4402308F0F0E1
S113026C830740B093F7170063860700830700B039
S113027C638ED7061304F4FFE310E4FEB707008083
S113028C03A70700B7F7ADDE9387C7326302F706FF
S113029C930700002308F0F00F1000001309050069
S11302AC37040080B7040010337189003361910066
S11302BC13050000930500001306000093000000D2
S11302CC670009008320C122032481228324412254
S11302DC032901228329C121032A8121832A412153
S11302EC032B01211301012367800000E30804F8A8
S11302FCB707008023A007006FF09FF0830740B07E
S113030C93F72700E39C07FE2300A0B0678000004E
S113031C830740B093F71700E38C07FE030500B086
S113032C1375F50F67800000130101FC23263103BC
S113033CB7C92D00232C8102232821032324410334
S113034C2322510323206103232E7101232C8101C9
S113035C232A91012328A101232E1102232A91027D
S113036C2326B10113090000130D0000130400002F
S113037C130A000A130B000B9389096C930B100BD3
S113038C130C100A930A0009930C10099357AD002F
S113039C2308F0F0EFF0DFF76308450B6368AA0459
S11303AC630C550363EEAA0293070008630CF5046F
S11303BC93071008E31CF5FC930D04009304400010
S11303CC13D58D019384F4FFEFF05FF3939D8D00AF
S11303DCE39804FE6FF09FFB13090D006FF01FFBF5
S11303ECE31695FB13040D006FF05FFA630A6509BD
S11303FC6304750DE31C85F91304000093040000D9
S113040C6F00800793044000131D8D00EFF05FF024
S113041C9384F4FF330DA501E39804FE6FF01FF7EA
S113042C9357F401131414003304F400EFF05FEE4B
S113043CB387A4012380A70033048500938414009C
S113044CE39024FF6FF09FF4130400009304000066
S113045C6FF01FFF9357F401131414003304F400CA
S113046CB387A40183CD07009384140013850D0076
S113047CEFF0DFE833848D00E39E24FD6FF01FF171
S113048C9307F000630A3D01B7470F0093870724D5
S113049C6318FD009307D0002304F0B06FF01FEF36
S11304ACB7170E006316FD009307C0006FF0DFFE54
S11304BC930790006FF05FFE8320C1030324810334
S11304CC83244103032901038329C102032A8102E2
S11304DC832A4102032B0102832BC101032C8101CA
S11304EC832C4101832DC10013050D00032D010143
S11304FC1301010467800000130700B42300A70054
S113050C8307170093F71700E38C07FE678000003E
S113051C130101FE232C8100232A9100232E1100A8
S113052C93040500138405002326C10093070000DF
S113053C130700B42301F700A300F7001305B00060
S113054CEFF09FFB13550401EFF01FFB13558400D0
S113055CEFF09FFA13050400EFF01FFA1305F00FE8
S113056CEFF09FF9032481010326C1008320C1010C
S113057C9385040083244101130500B41301010283
S113058C6F00801D130101FE232E8100232C91008A
S113059C232A21012328310123264101232451013B
S11305AC130500009305000093070000130F2000AF
S11305BC130E1000B70F00089308300093020006C6
S11305CC9303500037177276130620001307D7A035
S11305DC830640B093F62600E39C06FE2300E0B0AD
S11305EC13578740E31607FE37373E20130737238C
S11305FC6318C609930E0004130430059304F0FF2A
S113060C1309D0009309F0011306F00F9306F0FFC1
S113061C1308200093DA854063D20608F32710C030
S113062C33F7F701630407001307F00F13D33741B3
S113063C13FAF70F1373F30F635E43051347F700B5
S113064C2308E0F0030740B013771700E30607FC18
S113065C030700B063D8060463088702630C970C85
S113066CE30227F793070000E3D6E9FA830740B0C7
S113067C93F72700E39C07FE2300E0B06FF09FF98B
S113068C130610006FF0DFF49307000093060000CC
S113069C6FF05FF81347070F6FF09FFA230850F1C0
S11306AC6FF05FFA130367FFE3F068F69397470064
S11306BC63DAE202130707FE130797FC938616000E
S11306CCB367F7006396C603138797FF6376EF0649
S11306DC63C6F80013961700130656009307000020
S11306EC6FF05FF3E3CAEEFC130707FD6FF01FFD19
S11306FC63981601939717003308F8006FF01FFEE8
S113070CE3DAC3F0631AD60093850700E31405F00B
S113071C138507006FF01FF0E35ED6EEE3DC06EF03
S113072C13F71600E30807EE2380F50093851500F4
S113073C6FF05FEE130500000324C10183248101D3
S113074C0329410183290101032AC100832A810061
S113075C1301010267800000630A06021307F00FFD
S113076C2300E500930700001306F6FF631206024C
S113077C0327050093760710E38C06FE93D78700B6
S113078C131787013367F70023A0E5006780000087
S113079C8326050013F80610E30C08FE2300E5007D
S11307AC9396860193D78700B3E7F60093763600C9
S11307BC6396060023A0F500938545001306F6FF07
S10707CC6FF0DFFAED
S9030000FC
